:1000000009C016C015C014C013C012C011C010C062
:100010000FC00EC011241FBECFE9CDBF20E0A0E667
:10002000B0E001C01D92A836B207E1F75ED0A5C0CE
:10003000E7CF8AE187BB18BA85B7806485BF08958A
:100040000F931F9321E030E0A90102C0440F551F18
:100050008A95E2F7CA0128B330E028233923232BFD
:10006000D1F727B3282B27BB000000000000B99868
:1000700027B3382F3095232327BBB99AC19A00E0C4
:1000800010E098010F5F1F4F2F4F3F4F46B350E0D6
:1000900048235923452BB1F3C198602F712F822F2C
:1000A000932F1F910F910895CF92DF92EF92FF92BD
:1000B000CF93DF93D82FC4E6C12CD12C76018D2F9E
:1000C000BFDFC616D706E806F90610F46B017C01FF
:1000D000C150A9F76C2D7D2D8E2D9F2DDF91CF91D5
:1000E000FF90EF90DF90CF900895A3DF82E0DCDFF8
:1000F000609364007093650080936600909367003E
:1001000080E0D2DF609360007093610080936200B2
:100110009093630082E094DF009164001091650089
:1001200020916600309167000E5F1F4F2F4F3F4FA9
:10013000061717072807390710F4C39A01C0C39898
:1001400080E07EDF009160001091610020916200EC
:10015000309163000E5F1F4F2F4F3F4F0617170759
:100160002807390710F4C49A01C0C4988FEB92E1B4
:0E0170000197F1F700C00000CDCFF894FFCF4B
:00000001FF
